:020000040800F2
:10000000B8040020AD0100081716000863150008A9
:10001000151600085D0500087D1C000800000000A2
:100020000000000000000000000000003B16000877
:10003000F505000800000000391600083D1600080C
:10004000C7010008C7010008C7010008C701000870
:10005000C7010008C7010008C7010008C701000860
:10006000C7010008C7010008C7010008C701000850
:10007000C7010008C7010008C7010008C701000840
:10008000C7010008C7010008C70100080000000000
:10009000000000000000000000000000F70500085C
:1000A000C7010008C7010008C7010008C701000810
:1000B0003D170008C7010008C7010008C701000874
:1000C000C7010008C7010008C7010008C7010008F0
:1000D000C7010008C7010008711C000800000000EB
:1000E000C7010008C7010008C701000800000000A0
:1000F000000000000000000000000000C701000830
:1001000000000000C7010008C7010008C70100087F
:1001100000000000000000000000000000000000DF
:10012000C7010008C7010008C7010008C70100088F
:10013000C7010008000000000000000000000000EF
:10014000000000000000000000000000C7010008DF
:10015000C7010008C7010008C7010008C70100085F
:10016000C7010008C70100080000000000000000EF
:10017000000000000000000000000000000000007F
:1001800000000000C701000800000000000000009F
:10019000C7010008C7010008DFF80CD000F0CCF957
:1001A00000480047DD1C0008B804002006488047CE
:1001B00006480047FEE7FEE7FEE7FEE7FEE7FEE74C
:1001C000FEE7FEE7FEE7FEE7E916000899010008F2
:1001D0002DE9F05F0546002092469B46884606467C
:1001E000814640241BE0284641464746224600F00F
:1001F00036F953465A46C01A914110D31146184653
:10020000224600F01DF92D1A67EB01084F462246E1
:100210000120002100F014F917EB00094E41201EC7
:10022000A4F10104DFDC484631462A464346BDE8D6
:10023000F09F2DE9FE4F81EA030404F0004421F011
:10024000004100944FF0000B23F0004350EA0104FA
:100250005ED052EA03045BD0C3F30A54C1F30A55DB
:100260002C44A4F2F3340194A0FB0254C1F3130113
:1002700041F48011C3F3130343F4801301FB0244E0
:1002800000FB034E840A970A44EA815447EA8357E5
:10029000A4FB076802958D0A05FB07854FEA932C9E
:1002A00004FB0C542705029D4FEA065847EA16370F
:1002B000B5EB08056EEB070C870E920E47EA811727
:1002C00042EA8312A7FB0201B6EB0B0164EB0004C8
:1002D0002B0D43EA0C335E1844EB1C50DA465146B2
:1002E000E7FB0201C5F313044FEA0B3343EA14534F
:1002F0004FEA0432019C43EA0603A4F10C04029481
:10030000009CCDE900B400F0C9F803B0BDE8F08F5F
:1003100000200146F9E72DE9F04D81EA030404F0DD
:10032000004B21F0004514464FF0000A23F0004135
:1003300050EA050220D054EA01021DD0C5F30A5745
:100340000246C5F31303C1F31300C1F30A5640F488
:10035000801543F48013A7EB0608101BD64608F25D
:10036000FD3873EB050002D308F1010801E0921893
:100370005B41B8F1000F03DA00200146BDE8F08DC3
:1003800000204FF48011064684460EE0171B73EBE5
:10039000050705D3121B63EB050306434CEA010C6A
:1003A00049084FEA300092185B4150EA0107EDD14D
:1003B00052EA030012D082EA040083EA05010843EE
:1003C00005D0101BAB4106D20122002306E000221B
:1003D0004FF0004302E06FF0010253101AEB0600E9
:1003E0004CEB085110EB0A0041EB0B01BDE8F04D5E
:1003F00000F045B80EB540F2334102910021CDE93D
:1004000000110A460B4600F049F803B000BDC1F3E5
:100410000A5210B5C1F3130140F2FF3341F48011C9
:100420009A4201DA002010BD40F233439A42A2F210
:10043000334203DC524200F012F810BD904010BD70
:10044000202A04DB203A00FA02F100207047914094
:10045000C2F1200320FA03F3194390407047202A89
:1004600004DB203A21FA02F00021704721FA02F35E
:10047000D040C2F12002914008431946704710B5A0
:10048000141E73F1000408DA401C41F100019218B7
:100490005B411A4301D120F0010010BD2DE9F04D60
:1004A00092469B4611B1B1FA81F202E0B0FA80F2B5
:1004B00020329046FFF7C4FF04460F4640EA0A0088
:1004C00041EA0B0153465A46084313D0114653EAFA
:1004D000010019D0C8F140025046FFF7C0FF0546A1
:1004E0000E46504659464246FFF7AAFF084305D03C
:1004F000012004E020463946BDE8F08D0020054388
:1005000046EAE0762C4337430A986305E40AA0EBF9
:1005100008000022FD0A44EA47540A3002D50020B0
:100520000146E9E7010510196941DDE908450019AF
:100530006941BDE8F04DA2E7064C074D06E0E068D2
:1005400040F0010394E8070098471034AC42F6D31A
:10055000FFF726FE741E0008941E0008FEE7000048
:1005600010B501F06BFC00220221054800F093F960
:1005700044F2506000F028F8BDE8104001F050BC93
:10058000000002400E48016821F08071016001689E
:1005900041F0807101600B48016821F001010160A8
:1005A000016841F0010101600021416000BF00BF0E
:1005B00000BF406808B1002070470120704700006C
:1005C000FCED00E0001000E031B5084D6C6800F073
:1005D000C7FA0749B0FBF1F00099484300906868FA
:1005E0000099001B8842FAD338BD0000001000E0DB
:1005F00040420F00704710B5202000F077F8BDE8AA
:100600001040802000F072B890F83510022903D015
:100610008021416501207047052180F83510006870
:10062000016821F0010101600020704770B50446A7
:1006300000F036F90546601C02D0044800780444F6
:1006400000F02EF9401BA042FAD370BD1400002028
:1006500070B51E4D2021284600F018F91C4C0126CB
:1006600000B926702021284600F010F90028F9D0A2
:100670008021284600F00AF908BB0020207020697C
:10068000FFF7B8FE9FED131B53EC112BFFF7D1FDC5
:1006900041EC100B53EC102B9FED100B51EC100B99
:1006A000FFF739FE9FED0F1B53EC112BFFF7C1FD38
:1006B000FFF7ADFE6081010A2171607166708021D3
:1006C000284600F0E3F80028F9D070BD0000024091
:1006D00000000020F168E388B5F8E43E9A99999902
:1006E0009999B93F0000000000005940044910B535
:1006F0000A68024202D00860FFF7AAFF10BD00009E
:10070000143C01402DE9F84FDFF860B100224FF0B2
:1007100001084FF0030A4FF00F090BF1040E00BF60
:100720000B6808FA02F42340A3426ED14D68022DF3
:1007300001D0122D0ED1D50800EB850CDCF820502D
:100740005607F70E09FA07F6B5430E69BE402E4369
:10075000CCF82060066855000F790AFA05FC07F00E
:10076000030726EA0C06AF40374307604E68012EA8
:1007700005D0022E03D0112E01D0122E0ED1866884
:10078000CF6826EA0C06AF40374387604668A64329
:100790000C79C4F30014944034434460C6688C68F8
:1007A00026EA0C06AC403443C4604C68E40056D5DD
:1007B0002F4C256845F480452560246822F0030508
:1007C00004F4804400942B4C2E19D6F80848950761
:1007D0002F0F09FA07F5AC43274DA84201D1002598
:1007E00015E0264DA84201D1012510E0244DA84274
:1007F00001D102250BE0234DA84201D1032506E0DB
:10080000214DA84202D1042501E028E00725BD4082
:100810002543C6F80858DBF800405D464E689C4307
:10082000F60300D51C432C60DEF8004075464E6888
:100830009C43B60300D51C432C600C4D08352C6836
:100840004E689C43F60200D51C432C60074D0C35C6
:100850002C684E689C43B60200D51C432C60521C89
:10086000102AFFF45DAFBDE8F88F0000003C0140A6
:1008700044380240003001400000024000040240C1
:1008800000080240000C02400010024000690840CD
:1008900000D0012070470AB1816170470904FBE76D
:1008A00001488068704700001400002002488168F9
:1008B0000278114481607047140000200B4810B585
:1008C000016841F400710160016841F480610160D8
:1008D000016841F480710160032000F097F8002066
:1008E00000F006F800F024F8002010BD003C0240A3
:1008F00070B50D4D04464FF47A712878B1FBF0F0D5
:100900000A490968B1FBF0F000F01BFB48B9102C54
:1009100007D200222146501E00F058F800206C60DB
:1009200070BD012070BD00001400002020000020D8
:100930001F4808B5016841F480410160006800F477
:10094000804000901A48001F016841F0805101600A
:10095000006800F080500090032000F057F800225B
:1009600011466FF00B0000F031F8002211466FF0D5
:100970000A0000F02BF8002211466FF0090000F089
:1009800025F800221146501F00F020F800221146E1
:10099000101F00F01BF800221146901E00F016F800
:1009A0000022BDE808401146501E00F00FB80000BC
:1009B0004438024000F01F020121914040098000AC
:1009C00000F1E020C0F8001170470000F0B40E4BB9
:1009D0001B680C46C3F30223C3F10705042D00D99D
:1009E0000425191D072901D2002300E0DB1E012682
:1009F00006FA05F1491E214099409E40761E164098
:100A00003143F0BC00F008BE0CED00E0064900F0F8
:100A1000070208684FF6FF03184040EA0220034A25
:100A200010430860704700000CED00E00000FA057C
:100A30002DE9F0470E46050065D0DFF81481D8F89F
:100A40000000F7B200F00F00B04207D288F8007043
:100A5000D8F8000000F00F00B04254D128683D4C97
:100A6000810712D5400703D5206840F4E05020608C
:100A70002878000703D5206840F460402060206893
:100A8000A96820F0F000084320602878C0072DD026
:100A9000304968680839012812D0022813D0032889
:100AA00011D00968890700292DDA216821F0030196
:100AB00001432160FFF7F4FE814641F2883A0EE0DF
:100AC00009688903EFE709688901ECE7FFF7E8FEA9
:100AD000A0EB0901514502D90320BDE8F087206849
:100AE000696800F00C00B0EB810FEFD1D8F800106E
:100AF000404601F00F01B14207D90770006800F0CD
:100B00000F00B04201D00120E7E72878400705D563
:100B10002068E96820F4E050084320602878000746
:100B200006D52068296920F4604040EAC1002060B1
:100B300000F03CF82168084AC1F30311515CC84039
:100B4000064908600020FFF7D3FE0020C5E700003B
:100B5000003C0240083802405C1E000820000020D3
:100B60000148006870470000200000200448054943
:100B700000680968044AC1F38221515CC84070478B
:100B800020000020083802406C1E00080448054977
:100B900000680968044AC1F34231515CC84070479B
:100BA00020000020083802406C1E0008154810B5CF
:100BB000006810F00C02144813D04110042A0FD022
:100BC000082A0ED10F4C241F2268236802F03F022E
:100BD0005B0207D52068C0F38810A0FB010106E086
:100BE000084610BD2168C1F38811A1FB0001002354
:100BF000FFF7EEFA2168C1F30141491C4900B0FB3F
:100C0000F1F010BD083802400024F4002DE9F84F3F
:100C1000050076D02878DFF8F8B2BE4CC00749D07E
:100C2000DBF800105846C1F38101012908D00068A3
:100C3000C0F3810002280AD1201D0068400206D5B9
:100C40002068800336D568680028E2D032E0686802
:100C5000B0F5803F10D0B0F5A02F206810D020F460
:100C600080302060206820F4802020606868A0B177
:100C7000FFF716FE06460CE0206840F48030F4E7EB
:100C800040F480202060F7E7FFF70AFE801B64280D
:100C900073D820688003F7D50CE0FFF701FE064605
:100CA00005E000BFFFF7FCFD801B6428F0D820683A
:100CB0008003F7D42878DFF8608280074FF00009BE
:100CC0003ED5DBF80010584611F00C0F09D0006833
:100CD000C0F3810002280BD18D48001F006840023C
:100CE00006D42068800715D5E868012809D111E0ED
:100CF000E868B8B10120C8F80000FFF7D1FD06464A
:100D000005E002E1FFF7CCFD801B0228C0D8206877
:100D10008007F7D52068296920F0F80040EAC10073
:100D200020600DE0C8F80090FFF7BAFD064604E029
:100D3000FFF7B6FD801B02281FD820688007F7D474
:100D40002878000722D5724E744869696C3671B1F3
:100D500001210160FFF7A4FD074604E0FFF7A0FDB5
:100D6000C01B022809D830688007F7D50EE0C0F80C
:100D70000090FFF795FD074605E083E0FFF790FD43
:100D8000C01B02287ED830688007F7D42878400737
:100D900068D5DFF87CA100270AF1380ADAF80000EC
:100DA000C0000BD4DAF8001041F08051CAF80010EE
:100DB000DAF80000012700F080500090584E3068AB
:100DC000C00510D4306840F480703060FFF768FDD3
:100DD000009005E0FFF764FD0099401A022851D801
:100DE0003068C005F6D54A4EA868683601280FD08D
:100DF0000528306810D020F001003060306820F005
:100E000004003060A868B8B1FFF74AFD00900FE019
:100E1000306840F00100F4E740F004003060F7E78C
:100E2000FFF73EFD0099411A41F28830814264D8B3
:100E300030688007F4D50EE0FFF732FD009007E040
:100E4000FFF72EFD0099411A41F28830814254D8B3
:100E500030688007F4D42FB1DAF8001021F0805107
:100E6000CAF80010A869C0B3DBF80010C1F3810113
:100E700002294AD00228484607D0C8F86000FFF788
:100E80000FFD00E039E005463AE04746C8F860004B
:100E9000FFF706FD064604E0FFF702FD801B02286F
:100EA0002BD820688001F7D4D5E907010843A96A47
:100EB0001C4A490802EB01416A6A41EA821108436F
:100EC00095F82C1040EA01611148001F01600120D3
:100ED0003866FFF7E5FC054605E014E0FFF7E0FCA7
:100EE000401B022809D820688001F7D50BE000BF1D
:100EF000FFF7D6FC401B022802D90320BDE8F88F7B
:100F000020688001F4D40020F8E70120F6E7000013
:100F1000083802400038024000004742800E474235
:100F2000007000400000FFFF4FF0E0210428086936
:100F300003D020F004000861704740F00400FAE795
:100F4000704710B5401EB0F1807F01D3012010BD65
:100F50004FF0E02460610F21601700F05DFB00207E
:100F6000A06107202061002010BD10B5FFF7E8FF49
:100F700010BD7047704730B590F83820012A20D056
:100F8000012280F83820022380F8393003685C6839
:100F900024F070045C6003685C680D682C435C603E
:100FA00003689C6824F080049C6003689C6849681E
:100FB0000C439C6080F83920002180F838100846E6
:100FC00030BD022030BD10B5040003D094F83900C4
:100FD00010B107E0012010BD002084F83800204641
:100FE00000F00CF8022084F83900211D206800F080
:100FF000ABFB012084F83900002010BD08B5006863
:10100000B0F1804F12D10A48016841F0010101603E
:101010000068002200F00100009011461C20FFF73C
:10102000D5FCBDE808401C20FFF7C4BC08BD00008B
:10103000403802400168CA6842F00102CA60006894
:10104000016841F0010101600020704770B504465D
:1010500090F83800012817D0012584F83850022074
:1010600084F839002068826822F0770222F47F42F7
:1010700082600868502837D00DDC202859D005DC64
:1010800088B3102841D151E0022070BD302853D0E0
:1010900040283AD13FE060282ED070280BD0B0F520
:1010A000805F03D0B0F5005F2FD110E02068816829
:1010B00021F0070115E0CB68D1E90121206800F09B
:1010C0008BFB2168886840F0770088601DE0CB6862
:1010D000D1E90121206800F07FFB2068816841F49C
:1010E0008041816011E01EE0CA684968206800F014
:1010F00085FB5021206806E0CA684968206800F036
:101100008EFB6021206800F071FB84F839500020CC
:1011100084F8380070BDCA684968206800F06EFB2A
:1011200040212068EFE700212068ECE710212068CB
:10113000E9E720212068E6E730212068E3E77047EF
:1011400070B50446006801694FF00005C94389077E
:1011500015D4C168C943890711D4E91E0161012072
:101160002076206880698007204602D0FFF7E7FFDD
:1011700004E000F098F8204600F096F82576206804
:101180000169C943490717D4C168C943490713D442
:101190006FF004010161022020762068806910F45C
:1011A000407F204602D0FFF7CAFF04E000F07BF842
:1011B000204600F079F8257620680169C9430907BF
:1011C00016D4C168C943090712D46FF00801016140
:1011D000042020762068C0698007204602D0FFF7EF
:1011E000AEFF04E000F05FF8204600F05DF82576E1
:1011F00020680169C943C90617D4C168C943C90633
:1012000013D46FF010010161082020762068C069B6
:1012100010F4407F204602D0FFF791FF04E000F079
:1012200042F8204600F040F8257620680169C9435D
:10123000C90708D1C168C943C90704D1891E016122
:10124000204600F033F820680169C943090609D433
:10125000C168C943090605D46FF0800101612046C9
:10126000FFF787FE20680169C943490609D4C168B0
:10127000C943490605D46FF040010161204600F0E2
:1012800027F820680169C94389060BD4C168C9439E
:10129000890607D46FF0200101612046BDE8704047
:1012A000FFF768BE70BD70477047000006490068D0
:1012B0000968884206D105480178012902D10169EF
:1012C000491C01617047000024000020000000203C
:1012D0007047704770B5026804461068D16853695A
:1012E00010F00F0F51D003F0010501F49076354353
:1012F0005DD0C20705D0CA0503D5E26B42F00102FA
:10130000E263420705D5DA0703D0E26B42F002023E
:10131000E263820705D5DA0703D0E26B42F00402EC
:10132000E263020705D5DA0703D0E26B42F0080258
:10133000E263E26B002A34D0800604D5880602D529
:10134000204600F094FA20684069E16BC0F38010F9
:1013500001F008010143204624D000F07AFA206809
:10136000416949061AD5416921F040014161606B2C
:10137000A0B11B490165606BFFF746F9002810D04A
:10138000606B016DBDE87040084783060FD58B0682
:101390000DD52046BDE8704000F069BA2046FFF741
:1013A00098FF70BDFFF795FF0020E06370BD030656
:1013B00006D50B0604D52046BDE8704000F0F4BB0E
:1013C0004006F3D54806F1D5D168204621F040010A
:1013D000D160202184F8391000F0C2F870BD0000FF
:1013E0004318000870B5040004D094F839000025B3
:1013F00010B106E0012070BD84F83850204600F09E
:1014000023F8242084F839002068C16821F40051B1
:10141000C160204600F072FA2068016921F4904111
:1014200001612068416921F02A0141612068C16899
:1014300041F40051C160E563202084F8390084F84C
:101440003A00002070BD000000B50068124987B066
:1014500088421ED11148016841F4003101600068E2
:10146000694600F4003005900C20009002200190A5
:101470000120029003200390072004900848FFF702
:1014800041F9002211462620FFF7A0FA2620FFF797
:1014900091FA07B000BD000000440040403802400F
:1014A0000000024070472DE9F843044690F83900E7
:1014B0001F4616460D46202850D1A5B19EB194F87E
:1014C000380001284AD0012084F838004FF0000885
:1014D000C4F83C80212084F83900FFF7E1F9A684A4
:1014E0008146E68426E00120BDE8F883E08C401EBA
:1014F000E084A0684B46B0F5805F4FF000024FF0EB
:1015000080012046009703D000F07FFBE8B90DE092
:1015100000F07BFBC8B928882168C0F30800486048
:10152000206908B16D1C05E0AD1C03E0216815F8C9
:10153000010B4860E08C0028D8D14B4600224021A6
:101540002046009700F061FB08B10320CCE7202083
:1015500084F8390084F838800020C5E70220C3E70A
:101560007047FEE7134808B50268002142F0800288
:101570000260026802F080020092026842F00102FA
:1015800002600068A02200F0010000900A4802609A
:101590000A4AC0E9012101460948FFF7B3F80022D1
:1015A00011461720FFF712FABDE808401720FFF791
:1015B00001BA000030380240A000002000002110D5
:1015C0000000024010B5124886B04FF08041016023
:1015D00064210024C0E901140A21C0E90314FFF7C3
:1015E000F2FC00B1FEE74FF48050009069460848D5
:1015F000FFF72CFD00B1FEE7049404A9044805940C
:10160000FFF7B9FC002800D0FEE706B010BD0000CF
:1016100024000020FEE770470907090E002806DABB
:1016200000F00F0000F1E02080F8141D704700F179
:10163000E02080F8001470477047704710B5FFF73E
:1016400035F9BDE81040FFF790BC000030B52448E4
:1016500093B00025016841F080510160006800F0FE
:10166000805011901F48016841F4404101600068BA
:10167000022400F4404011900120009000040190E9
:101680008001CDE9064008200890C820CDE9090472
:1016900004200B906846FFF7B9FA00B1FEE70CA9E9
:1016A0000F2081E831004FF48050CDE90F05032170
:1016B0000CA8FFF7BDF900B1FEE7FFF751FA4FF4B0
:1016C0007A71B0FBF1F0FFF73CFC0420FFF72CFC33
:1016D00000221146501EFFF779F913B030BD00000B
:1016E00040380240007000401048016841F4700129
:1016F00001600F48016841F0010101600C4A0021BE
:101700000832116002680B4B1A400260031D0A4A3E
:101710001A60026822F48022026005480C300160E1
:1017200002495806803908607047000088ED00E0E3
:1017300000380240FFFFF6FE103000240148FFF79A
:10174000FFBC000024000020F0B502681B4B1C4CBD
:101750009F031C4D1C4E984207D0B84205D0A042B2
:1017600003D0A84201D0B04204D122F0700C4A68E4
:1017700042EA0C02984210D0B8420ED0A0420CD0DF
:10178000A8420AD0B04208D0104CA04205D0104C5C
:10179000A04202D00F4CA04203D122F44074CA6888
:1017A000224302608A68C2620A688262984201D15A
:1017B0000969016301214161F0BD000000000140A1
:1017C0000004004000080040000C004000400140C0
:1017D000004401400048014010B5846842EA0322F9
:1017E00024F47F440A432243826010BD826822F0C1
:1017F00070020A4342F007018160704710B5036A26
:10180000046A24F001040462846924F0F00444EAC8
:10181000021423F00A020A438461026210BD10B56B
:10182000036A23F0100303628369046A23F470439C
:1018300043EA023224F0A00343EA0111826101620B
:1018400010BD10B5806B0021C185C184FFF741FD3B
:1018500010BD0168CA6822F49072CA6001684A69C2
:1018600022F001024A61202180F83A10704710B539
:1018700090F83A10222901D0022010BD8168B1F5FC
:10188000805F11D00169002901681FD0496801F00B
:101890007F03816A4A1C82620B70C18D491E090454
:1018A000090CC18518D026E00269816A002A026805
:1018B000526805D0D2B20A80816A491C8162ECE785
:1018C000C2F308020A80816A891CF7E74A68816AC4
:1018D0004B1C83620A70E0E70168CA6822F49072C8
:1018E000CA6001684A6922F001024A61202180F839
:1018F0003A10FFF7D7FD002010BD00002DE9F041A0
:1019000004460068016921F44052E1681143016115
:101910002168C86849F20C6290432369A268E569AE
:101920001A4363692B431A430243CA60216848691A
:1019300020F44072A06910434861E1696425B1F563
:10194000004F9748974A21684FF032083FD09142A4
:1019500001D081427CD1FFF719F900EBC00101EB06
:10196000001061688900B0FBF1F6FFF70FF900EB9A
:10197000C00101EB001061688900B0FBF1F0B0FB21
:10198000F5F06FF01801484306EB800108EB0110F9
:10199000B0FBF5F000F0F006FFF7F8F800EBC0013F
:1019A00001EB001061688900B0FBF1F0B0FBF5F0CD
:1019B00006EB0016FFF7EAF800EBC00101EB0010A0
:1019C00061688900B0FBF1F7FFF7E0F8D2E09142DF
:1019D00001D081423DD1FFF7D9F800EBC00101EB06
:1019E000001061684900B0FBF1F0B0FBF5F00601B2
:1019F000FFF7CCF800EBC00101EB00106168490073
:101A0000B0FBF1F7FFF7C2F800EBC00101EB0010EB
:101A100061684900B0FBF1F0B0FBF5F06FF0180120
:101A2000484307EB800108EBC100B0FBF5F000F084
:101A3000F80006EB4006FFF7A9F800EBC00101EB48
:101A4000001061684900B0FBF1F7FFF79FF83CE038
:101A500055E0FFF78BF800EBC00101EB0010616867
:101A60004900B0FBF1F0B0FBF5F00601FFF77EF89E
:101A700000EBC00101EB001061684900B0FBF1F719
:101A8000FFF774F800EBC00101EB0010616849003A
:101A9000B0FBF1F0B0FBF5F06FF01801484307EB35
:101AA000800108EBC100B0FBF5F000F0F80006EB98
:101AB0004006FFF75BF800EBC00101EB0010616826
:101AC0004900B0FBF1F7FFF751F800EBC00101EB63
:101AD000001061684900B0FBF1F0B0FBF5F06FF069
:101AE0001801484307EB800108EBC100B0FBF5F09B
:101AF00000F00700216830448860BDE8F081FFF7FE
:101B000035F800EBC00101EB001061688900B0FB03
:101B1000F1F6FFF72BF800EBC00101EB0010616854
:101B20008900B0FBF1F0B0FBF5F06FF0180148430D
:101B300006EB800108EB0110B0FBF5F000F0F006B9
:101B4000FFF714F800EBC00101EB00106168890099
:101B5000B0FBF1F0B0FBF5F006EB0016FFF706F86E
:101B600000EBC00101EB001061688900B0FBF1F7E8
:101B7000FEF7FCFF00EBC00101EB0010616889007B
:101B8000B0FBF1F0B0FBF5F06FF01801484307EB44
:101B9000800108EB0110B0FBF5F000F00F00A9E7A1
:101BA000001401400010014090F83910212901D0A3
:101BB000022070478168B1F5805F016A0BD04A1C32
:101BC0000262026809785160C18C491E0904090C3F
:101BD000C1840ED017E009880268C1F30801516082
:101BE00001690029016A02D0491C0162ECE7891CE5
:101BF000FBE70168CA6822F08002CA600068C16819
:101C000041F04001C160002070472DE9F041984645
:101C100017460E460446069D1DE0681C1BD02DB1DC
:101C2000FEF73EFEA0EB0800A84214D92068C16868
:101C300021F4D071C1602068416921F00101416146
:101C4000202084F8390084F83A00002084F8380015
:101C50000320BDE8F0812068006836EA000004D067
:101C60000020B842D9D00020F3E70120F9E70000B6
:101C70000148FFF72FBB000060000020FEE702E0F4
:101C800008C8121F08C1002AFAD170477047002007
:101C900001E001C1121F002AFBD1704710B52820B6
:101CA000FEF792FC0B4C02212046FEF7EFFD50B9E7
:101CB0005020FEF789FC02212046FEF7E7FD10B117
:101CC00005490120C87002212046FEF7DFFD0028EB
:101CD000F9D110BD0000024000000020FEF7EEFD2B
:101CE000FFF7B4FCFFF73EFCFFF76CFC33483249CA
:101CF000002501604FF41651C0E901150C21C560A3
:101D0000C0E904518561C561FFF76CFB00B1FEE7D6
:101D1000FEF738FC29483C38FFF78CF9284C256140
:101D200084F80050FEF71CFCFFF7B8FF00F04AF8FB
:101D3000A07100F047F8E07100F044F8207200F064
:101D400041F8607200F03EF8A081A179E279114477
:101D5000227A1144627A1144814226D118490A2319
:101D60000122891C1548FFF79EFB15490A23012211
:101D700008311248FFF797FB11490A230122891DF8
:101D80000E48FFF790FB0E490A230122091D0B485C
:101D9000FFF789FB0A490A230122491D0748FFF77B
:101DA00082FB4FF49660FEF741FC60780128B9D1C0
:101DB00025616570B6E70000004400406000002027
:101DC000000000202DE9F0410024144F01260221DB
:101DD0003846FEF75BFD0028F9D02820FEF7F4FB1B
:101DE00002213846FEF752FD90B1C4F1070106FA10
:101DF00001F02843C5B202213846FEF747FD00280E
:101E0000F9D1641CE4B2082CE1D32846BDE8F08186
:101E1000C4F1070006FA00F08543ECE70000024039
:101E200004480221016000214160816001460248AE
:101E3000FEF768BCA0000020000002400548022117
:101E40000160012141600021C16001460248FEF7A6
:101E500059BC0000A000002000000240000000006B
:101E6000000000000102030406070809000000004A
:101E700001020304941E000800000020240000005A
:101E80007E1C0008B81E00082400002094040000F6
:101E90008E1C00080000640000000000000000002C
:101EA0000000000000000000010000001000000021
:081EB000000000000024F40012
:040000050800019955
:00000001FF
