:020000040800F2
:10000000E0040020AD0100081F130008C71200081B
:100010001D130008950200088D190008000000005B
:100020000000000000000000000000004313000872
:100030009702000800000000411300084513000863
:10004000C7010008C7010008C7010008C701000870
:10005000C7010008C7010008C7010008C701000860
:10006000C7010008C7010008C7010008C701000850
:10007000C7010008C7010008C7010008C701000840
:10008000C7010008C7010008C70100080000000000
:10009000000000000000000000000000C701000890
:1000A000C7010008C7010008C7010008C701000810
:1000B00041140008C7010008C7010008C701000873
:1000C000C7010008C7010008C7010008C7010008F0
:1000D000C7010008C70100087519000800000000EA
:1000E000C7010008C7010008C701000800000000A0
:1000F000000000000000000000000000C701000830
:1001000000000000C7010008C7010008C70100087F
:1001100000000000000000000000000000000000DF
:10012000C7010008C7010008C7010008C70100088F
:10013000C7010008000000000000000000000000EF
:10014000000000000000000000000000C7010008DF
:10015000C7010008C7010008C7010008811900088D
:10016000C7010008C70100080000000000000000EF
:10017000000000000000000000000000000000007F
:1001800000000000C701000800000000000000009F
:10019000C7010008C7010008DFF80CD000F068F8BC
:1001A00000480047AD190008E004002006488047D9
:1001B00006480047FEE7FEE7FEE7FEE7FEE7FEE74C
:1001C000FEE7FEE7FEE7FEE7ED13000899010008F1
:1001D0002DE9F05F0546002092469B46884606467C
:1001E000814640241BE0284641464746224600F00F
:1001F0002FF853465A46C01A914110D3114618465B
:10020000224600F016F82D1A67EB01084F462246E9
:100210000120002100F00DF817EB00094E41201ECF
:10022000A4F10104DFDC484631462A464346BDE8D6
:10023000F09F202A04DB203A00FA02F100207047E8
:100240009140C2F1200320FA03F319439040704714
:10025000202A04DB203A21FA02F00021704721FA1B
:1002600002F3D040C2F12002914008431946704782
:10027000064C074D06E0E06840F0010394E80700F3
:1002800098471034AC42F6D3FFF78AFF141B0008DE
:10029000341B0008FEE7704790F83510022903D0A0
:1002A0008021416501207047052180F835100068E4
:1002B000016821F001010160002070472DE9F84F2D
:1002C000DFF860B100224FF001084FF0030A4FF051
:1002D0000F090BF1040E00BF0B6808FA02F423406B
:1002E000A3426ED14D68022D01D0122D0ED1D5083A
:1002F00000EB850CDCF820505607F70E09FA07F6DC
:10030000B5430E69BE402E43CCF820600668550008
:100310000F790AFA05FC07F0030726EA0C06AF403E
:10032000374307604E68012E05D0022E03D0112EF0
:1003300001D0122E0ED18668CF6826EA0C06AF4097
:10034000374387604668A6430C79C4F30014944091
:1003500034434460C6688C6826EA0C06AC403443DB
:10036000C4604C68E40056D52F4C256845F48045A0
:100370002560246822F0030504F4804400942B4C8B
:100380002E19D6F8084895072F0F09FA07F5AC4340
:10039000274DA84201D1002515E0264DA84201D1E4
:1003A000012510E0244DA84201D102250BE0234D88
:1003B000A84201D1032506E0214DA84202D104251F
:1003C00001E028E00725BD402543C6F80858DBF8C2
:1003D00000405D464E689C43F60300D51C432C60EC
:1003E000DEF8004075464E689C43B60300D51C43BA
:1003F0002C600C4D08352C684E689C43F60200D5E5
:100400001C432C60074D0C352C684E689C43B6028B
:1004100000D51C432C60521C102AFFF45DAFBDE8D0
:10042000F88F0000003C0140443802400030014099
:10043000000002400004024000080240000C02409C
:100440000010024001488068704700001000002042
:1004500002488168027811448160704710000020D2
:100460000B4810B5016841F400710160016841F466
:1004700080610160016841F480710160032000F037
:1004800097F8002000F006F800F024F8002010BDD6
:10049000003C024070B50D4D04464FF47A71287847
:1004A000B1FBF0F00A490968B1FBF0F000F01BFB6A
:1004B00048B9102C07D200222146501E00F058F8EF
:1004C00000206C6070BD012070BD00001000002095
:1004D0001C0000201F4808B5016841F480410160FC
:1004E000006800F4804000901A48001F016841F045
:1004F00080510160006800F080500090032000F0FF
:1005000057F8002211466FF00B0000F031F800227E
:1005100011466FF00A0000F02BF8002211466FF030
:10052000090000F025F800221146501F00F020F8C5
:1005300000221146101F00F01BF800221146901EE9
:1005400000F016F80022BDE808401146501E00F0E9
:100550000FB800004438024000F01F020121914012
:100560004009800000F1E020C0F800117047000051
:10057000F0B40E4B1B680C46C3F30223C3F107050E
:10058000042D00D90425191D072901D2002300E0FC
:10059000DB1E012606FA05F1491E214099409E40C6
:1005A000761E16403143F0BC00F0BABE0CED00E000
:1005B000064900F0070208684FF6FF03184040EABA
:1005C0000220034A10430860704700000CED00E071
:1005D0000000FA052DE9F0470E46050065D0DFF86A
:1005E0001481D8F80000F7B200F00F00B04207D233
:1005F00088F80070D8F8000000F00F00B04254D125
:1006000028683D4C810712D5400703D5206840F487
:10061000E05020602878000703D5206840F460404F
:1006200020602068A96820F0F00008432060287846
:10063000C0072DD0304968680839012812D0022837
:1006400013D0032811D00968890700292DDA216801
:1006500021F0030101432160FFF7F4FE814641F2DE
:10066000883A0EE009688903EFE709688901ECE739
:10067000FFF7E8FEA0EB0901514502D90320BDE8D0
:10068000F0872068696800F00C00B0EB810FEFD1B3
:10069000D8F80010404601F00F01B14207D90770A9
:1006A000006800F00F00B04201D00120E7E7287891
:1006B000400705D52068E96820F4E0500843206031
:1006C0002878000706D52068296920F4604040EAB0
:1006D000C100206000F03CF82168084AC1F3031112
:1006E000515CC840064908600020FFF7D3FE002097
:1006F000C5E70000003C024008380240FC1A000830
:100700001C00002001480068704700001C00002009
:100710000448054900680968044AC1F38221515C14
:10072000C84070471C000020083802400C1B00081D
:100730000448054900680968044AC1F34231515C24
:10074000C84070471C000020083802400C1B0008FD
:10075000154810B5006810F00C02144813D0411071
:10076000042A0FD0082A0ED10F4C241F22682368B8
:1007700002F03F025B0207D52068C0F38810A0FB9F
:10078000010106E0084610BD2168C1F38811A1FBF4
:1007900000010023FFF71CFD2168C1F30141491C42
:1007A0004900B0FBF1F010BD083802400024F4000D
:1007B0002DE9F84F050076D02878DFF8F8B2BE4C66
:1007C000C00749D0DBF800105846C1F38101012968
:1007D00008D00068C0F3810002280AD1201D0068FB
:1007E000400206D52068800336D568680028E2D02C
:1007F00032E06868B0F5803F10D0B0F5A02F2068D7
:1008000010D020F480302060206820F48020206008
:100810006868A0B1FFF716FE06460CE0206840F4B9
:100820008030F4E740F480202060F7E7FFF70AFE0D
:10083000801B642873D820688003F7D50CE0FFF78D
:1008400001FE064605E000BFFFF7FCFD801B6428A3
:10085000F0D820688003F7D42878DFF8608280071A
:100860004FF000093ED5DBF80010584611F00C0F90
:1008700009D00068C0F3810002280BD18D48001F09
:100880000068400206D42068800715D5E868012872
:1008900009D111E0E868B8B10120C8F80000FFF7FD
:1008A000D1FD064605E002E1FFF7CCFD801B0228E2
:1008B000C0D820688007F7D52068296920F0F800A3
:1008C00040EAC10020600DE0C8F80090FFF7BAFDD3
:1008D000064604E0FFF7B6FD801B02281FD82068FB
:1008E0008007F7D42878000722D5724E74486969CA
:1008F0006C3671B101210160FFF7A4FD074604E0E9
:10090000FFF7A0FDC01B022809D830688007F7D583
:100910000EE0C0F80090FFF795FD074605E083E084
:10092000FFF790FDC01B02287ED830688007F7D4FF
:100930002878400768D5DFF87CA100270AF1380A3B
:10094000DAF80000C0000BD4DAF8001041F0805152
:10095000CAF80010DAF80000012700F0805000907B
:10096000584E3068C00510D4306840F48070306054
:10097000FFF768FD009005E0FFF764FD0099401A5D
:10098000022851D83068C005F6D54A4EA8686836A6
:1009900001280FD00528306810D020F00100306009
:1009A000306820F004003060A868B8B1FFF74AFD55
:1009B00000900FE0306840F00100F4E740F00400E0
:1009C0003060F7E7FFF73EFD0099411A41F28830A9
:1009D000814264D830688007F4D50EE0FFF732FD1D
:1009E000009007E0FFF72EFD0099411A41F2883090
:1009F000814254D830688007F4D42FB1DAF800105F
:100A000021F08051CAF80010A869C0B3DBF80010CB
:100A1000C1F3810102294AD00228484607D0C8F80C
:100A20006000FFF70FFD00E039E005463AE0474679
:100A3000C8F86000FFF706FD064604E0FFF702FD78
:100A4000801B02282BD820688001F7D4D5E9070144
:100A50000843A96A1C4A490802EB01416A6A41EA53
:100A60008211084395F82C1040EA01611148001FDB
:100A7000016001203866FFF7E5FC054605E014E05B
:100A8000FFF7E0FC401B022809D820688001F7D559
:100A90000BE000BFFFF7D6FC401B022802D9032061
:100AA000BDE8F88F20688001F4D40020F8E7012029
:100AB000F6E70000083802400038024000004742D4
:100AC000800E4742007000400000FFFF4FF0E02121
:100AD0000428086903D020F004000861704740F042
:100AE0000400FAE7704710B5401EB0F1807F01D3D3
:100AF000012010BD4FF0E02460610F21601700F06D
:100B00000FFC0020A06107202061002010BD10B55F
:100B1000FFF7E8FF10BD7047704730B590F83820F8
:100B2000012A20D0012280F83820022380F83930B1
:100B300003685C6824F070045C6003685C680D689E
:100B40002C435C6003689C6824F080049C6003680C
:100B50009C6849680C439C6080F83920002180F82B
:100B60003810084630BD022030BD10B5040003D057
:100B700094F8390010B107E0012010BD002084F87E
:100B80003800204600F00CF8022084F83900211DBE
:100B9000206800F05BFC012084F83900002010BDC3
:100BA00008B50068B0F1804F12D10A48016841F0E1
:100BB000010101600068002200F001000090114670
:100BC0001C20FFF7D5FCBDE808401C20FFF7C4BC83
:100BD00008BD0000403802400168CA6842F00102C6
:100BE000CA600068016841F001010160002070479F
:100BF00070B5044690F83800012817D0012584F814
:100C00003850022084F839002068826822F0770288
:100C100022F47F4282600868502837D00DDC2028FB
:100C200059D005DC88B3102841D151E0022070BDB5
:100C3000302853D040283AD13FE060282ED0702889
:100C40000BD0B0F5805F03D0B0F5005F2FD110E07E
:100C50002068816821F0070115E0CB68D1E9012106
:100C6000206800F03BFC2168886840F077008860CD
:100C70001DE0CB68D1E90121206800F02FFC20683D
:100C8000816841F48041816011E01EE0CA684968D2
:100C9000206800F035FC5021206806E0CA684968E9
:100CA000206800F03EFC6021206800F021FC84F800
:100CB0003950002084F8380070BDCA68496820683F
:100CC00000F01EFC40212068EFE700212068ECE7DF
:100CD00010212068E9E720212068E6E7302120681C
:100CE000E3E7704770B50446006801694FF00005FE
:100CF000C943890715D4C168C943890711D4E91EBE
:100D0000016101202076206880698007204602D09A
:100D1000FFF7E7FF04E000F098F8204600F096F8AF
:100D2000257620680169C943490717D4C168C943BA
:100D3000490713D46FF00401016102202076206876
:100D4000806910F4407F204602D0FFF7CAFF04E01C
:100D500000F07BF8204600F079F8257620680169DC
:100D6000C943090716D4C168C943090712D46FF0F3
:100D700008010161042020762068C06980072046B0
:100D800002D0FFF7AEFF04E000F05FF8204600F06D
:100D90005DF8257620680169C943C90617D4C16882
:100DA000C943C90613D46FF01001016108202076F1
:100DB0002068C06910F4407F204602D0FFF791FF01
:100DC00004E000F042F8204600F040F82576206864
:100DD0000169C943C90708D1C168C943C90704D11A
:100DE000891E0161204600F033F820680169C9437B
:100DF000090609D4C168C943090605D46FF080010A
:100E000001612046FFF787FE20680169C943490652
:100E100009D4C168C943490605D46FF04001016196
:100E2000204600F08DF820680169C94389060BD47B
:100E3000C168C943890607D46FF0200101612046CB
:100E4000BDE87040FFF768BE70BD70477047000096
:100E500010B5344900680968884262D131480A23D4
:100E6000012231497C3000F0D0F92F492D480A2366
:100E70000122491C7C3000F0C8F92A480A230222CA
:100E80002AA17C3000F0C1F926480A23012228A1BA
:100E90007C3000F0BAF9244922480A230122891C37
:100EA0007C3000F0B2F920491E480A230122C91CF7
:100EB0007C3000F0AAF91B480A2302221DA17C30D5
:100EC00000F0A3F917480A23012219A17C3000F091
:100ED0009CF9154913480A230122091D7C3000F0B2
:100EE00094F911490F480A230122491D7C3000F072
:100EF0008CF90D490B480A230122891D7C3000F032
:100F000084F908480A2305220BA17C3000F07DF902
:100F100004480A230122BDE8104005A17C3000F0FE
:100F200074B910BD200000200500002020430000FF
:100F30007C0000002025000020636D2F730000005E
:100F40007047704770B5026804461068D1685369ED
:100F500010F00F0F51D003F0010501F490763543E6
:100F60005DD0C20705D0CA0503D5E26B42F001028D
:100F7000E263420705D5DA0703D0E26B42F00202D2
:100F8000E263820705D5DA0703D0E26B42F0040280
:100F9000E263020705D5DA0703D0E26B42F00802EC
:100FA000E263E26B002A34D0800604D5880602D5BD
:100FB000204600F0DEFA20684069E16BC0F3801043
:100FC00001F008010143204624D000F0C4FA206853
:100FD000416949061AD5416921F040014161606BC0
:100FE000A0B11B490165606BFFF756F9002810D0CE
:100FF000606B016DBDE87040084783060FD58B0616
:101000000DD52046BDE8704000F0B3BA2046FFF78A
:1010100098FF70BDFFF795FF0020E06370BD0306E9
:1010200006D50B0604D52046BDE8704000F03EBC56
:101030004006F3D54806F1D5D168204621F040019D
:10104000D160202184F8391000F03CF970BD000017
:101050004715000870B5040004D094F83900002545
:1010600010B106E0012070BD84F83850204600F031
:1010700023F8242084F839002068C16821F4005145
:10108000C160204600F0BCFA2068016921F490415B
:1010900001612068416921F02A0141612068C1682D
:1010A00041F40051C160E563202084F8390084F8E0
:1010B0003A00002070BD000010B500681F4C0221EE
:1010C0000122032386B0A04218D11D48046844F4CD
:1010D00000340460006800F4003005900C208DE8B6
:1010E0000F000720049069461648FFF7E7F8002232
:1010F00011462620FFF73CFA26201BE0124CA042A6
:101100001AD10F48001D046844F0200404600068F0
:1011100000F020000590C0208DE80F00082004900A
:1011200069460A48FFF7CAF8002211464720FFF730
:101130001FFA4720FFF710FA06B010BD0044004028
:101140004038024000000240001401400008024004
:101150002DE9F843044690F83A00994616460D46A4
:1011600020284FD195B18EB194F83800012849D08C
:10117000012084F838000027E763222084F83A0031
:10118000FFF760F9A6858046E68531E00120BDE8DD
:10119000F883E08D401EE085A0684346B0F5805F8F
:1011A0004FF000024FF020012046CDF8009004D00F
:1011B00000F0ADFB98B10320E9E700F0A8FB0028A0
:1011C000F9D1206900282068406803D0C1B225F811
:1011D000011B0DE0C0F3080125F8021B08E020699F
:1011E00000282068406801D000F07F0005F8010B5E
:1011F000E08D0028CDD1202084F83A0084F83870A2
:101200000020C4E70220C2E770472DE9F8430446F6
:1012100090F839001F4616460D46202850D1A5B13A
:101220009EB194F8380001284AD0012084F8380093
:101230004FF00008C4F83C80212084F83900FFF703
:1012400001F9A6848146E68426E00120BDE8F88302
:10125000E08C401EE084A0684B46B0F5805F4FF004
:1012600000024FF080012046009703D000F04FFBB2
:10127000E8B90DE000F04BFBC8B928882168C0F33D
:1012800008004860206908B16D1C05E0AD1C03E052
:10129000216815F8010B4860E08C0028D8D14B4636
:1012A000002240212046009700F031FB08B10320C6
:1012B000CCE7202084F8390084F838800020C5E786
:1012C0000220C3E77047FEE710B5134886B04FF021
:1012D000804101604CF250310024C0E9011440F219
:1012E000E731C0E90314FFF740FC00B1FEE74FF41B
:1012F0008050009069460848FFF77AFC00B1FEE78D
:10130000049404A904480594FFF707FC002800D0C2
:10131000FEE706B010BD000020000020FEE7704789
:101320000907090E002806DA00F00F0000F1E0209E
:1013300080F8141D704700F1E02080F80014704719
:101340007047704710B5FFF783F8BDE81040FFF70E
:10135000DEBB000030B5234893B00024016841F0A3
:1013600080510160006800F0805011901E480168B3
:1013700041F4404101600068022500F440401190B2
:1013800001200090000401908001CDE90650082062
:1013900008906420CDE9090504200B906846FFF70A
:1013A00007FA00B1FEE70F200C90CDE90D540F9421
:1013B00001210CA81094FFF70DF900B1FEE7FFF72B
:1013C000A1F94FF47A71B0FBF1F0FFF78CFB042028
:1013D000FFF77CFB00221146501EFFF7C9F813B03F
:1013E00030BD0000403802400070004010480168E5
:1013F00041F4700101600F48016841F00101016092
:101400000C4A00210832116002680B4B1A4002603E
:10141000031D0A4A1A60026822F48022026005480D
:101420000C3001600249580680390860704700009E
:1014300088ED00E000380240FFFFF6FE1030002487
:101440000148FFF74FBC000020000020F0B5026803
:101450001B4B1C4C9F031C4D1C4E984207D0B8429E
:1014600005D0A04203D0A84201D0B04204D122F05E
:10147000700C4A6842EA0C02984210D0B8420ED072
:10148000A0420CD0A8420AD0B04208D0104CA042D2
:1014900005D0104CA04202D00F4CA04203D122F440
:1014A0004074CA68224302608A68C2620A68826223
:1014B000984201D10969016301214161F0BD000039
:1014C000000001400004004000080040000C004003
:1014D00000400140004401400048014010B58468CC
:1014E00042EA032224F47F440A432243826010BD6F
:1014F000826822F070020A4342F00701816070475F
:1015000010B5036A046A24F001040462846924F0BB
:10151000F00444EA021423F00A020A4384610262DE
:1015200010BD10B5036A23F0100303628369046AD7
:1015300023F4704343EA023224F0A00343EA01118A
:101540008261016210BD10B5806B0021C185C1842C
:10155000FFF7F7FC10BD0168CA6822F49072CA60F8
:1015600001684A6922F001024A61202180F83A109C
:10157000704710B590F83A10222901D0022010BD12
:101580008168B1F5805F11D00169002901681FD021
:10159000496801F07F03816A4A1C82620B70C18D29
:1015A000491E0904090CC18518D026E00269816A28
:1015B000002A0268526805D0D2B20A80816A491CAA
:1015C0008162ECE7C2F308020A80816A891CF7E7AE
:1015D0004A68816A4B1C83620A70E0E70168CA6846
:1015E00022F49072CA6001684A6922F001024A61DD
:1015F000202180F83A10FFF707FE002010BD000000
:101600002DE9F04104460068016921F44052E16887
:10161000114301612168C86849F20C629043236953
:10162000A268E5691A4363692B431A430243CA60FF
:101630002168486920F44072A06910434861E1695B
:101640006425B1F5004F9748974A21684FF032085A
:101650003FD0914201D081427CD1FFF769F800EB85
:10166000C00101EB001061688900B0FBF1F6FFF7E3
:101670005FF800EBC00101EB001061688900B0FB6E
:10168000F1F0B0FBF5F06FF01801484306EB800174
:1016900008EB0110B0FBF5F000F0F006FFF748F89A
:1016A00000EBC00101EB001061688900B0FBF1F0B4
:1016B000B0FBF5F006EB0016FFF73AF800EBC001BF
:1016C00001EB001061688900B0FBF1F7FFF730F81B
:1016D000D2E0914201D081423DD1FFF729F800EBE1
:1016E000C00101EB001061684900B0FBF1F0B0FBF4
:1016F000F5F00601FFF71CF800EBC00101EB00104C
:1017000061684900B0FBF1F7FFF712F800EBC00188
:1017100001EB001061684900B0FBF1F0B0FBF5F09F
:101720006FF01801484307EB800108EBC100B0FBE4
:10173000F5F000F0F80006EB4006FEF7F9FF00EBCD
:10174000C00101EB001061684900B0FBF1F7FEF742
:10175000EFFF3CE055E0FEF7DBFF00EBC00101EBE3
:10176000001061684900B0FBF1F0B0FBF5F0060134
:10177000FEF7CEFF00EBC00101EB001061684900ED
:10178000B0FBF1F7FEF7C4FF00EBC00101EB001066
:1017900061684900B0FBF1F0B0FBF5F06FF01801A3
:1017A000484307EB800108EBC100B0FBF5F000F007
:1017B000F80006EB4006FEF7ABFF00EBC00101EBC3
:1017C000001061684900B0FBF1F7FEF7A1FF00EBE4
:1017D000C00101EB001061684900B0FBF1F0B0FB03
:1017E000F5F06FF01801484307EB800108EBC100EA
:1017F000B0FBF5F000F00700216830448860BDE8D8
:10180000F081FEF785FF00EBC00101EB001061687D
:101810008900B0FBF1F6FEF77BFF00EBC00101EBA6
:10182000001061688900B0FBF1F0B0FBF5F06FF0DB
:101830001801484306EB800108EB0110B0FBF5F0FE
:1018400000F0F006FEF764FF00EBC00101EB0010B2
:1018500061688900B0FBF1F0B0FBF5F006EB001613
:10186000FEF756FF00EBC00101EB00106168890034
:10187000B0FBF1F7FEF74CFF00EBC00101EB0010ED
:1018800061688900B0FBF1F0B0FBF5F06FF0180172
:10189000484307EB800108EB0110B0FBF5F000F0C6
:1018A0000F00A9E7001401400010014090F8391022
:1018B000212901D0022070478168B1F5805F016A5B
:1018C0000BD04A1C0262026809785160C18C491E23
:1018D0000904090CC1840ED017E009880268C1F31D
:1018E0000801516001690029016A02D0491C0162A6
:1018F000ECE7891CFBE70168CA6822F08002CA6035
:101900000068C16841F04001C160002070472DE9C6
:10191000F041984617460E460446069D1DE0681C99
:101920001BD02DB1FEF78EFDA0EB0800A84214D904
:101930002068C16821F4D071C1602068416921F03C
:1019400001014161202084F8390084F83A00002028
:1019500084F838000320BDE8F0812068006836EA8A
:10196000000004D00020B842D9D00020F3E70120C5
:10197000F9E700000148FFF7E5BA00005C0000202D
:101980000148FFF7DFBA00009C000020FEE702E0FC
:1019900008C8121F08C1002AFAD1704770470020FA
:1019A00001E001C1121F002AFBD1704708B5FEF704
:1019B00057FDFFF7CFFC4C480025016841F080013E
:1019C0000160016801F080010091016841F00101AE
:1019D0000160016801F001010091016841F004011A
:1019E0000160006800F004000090FFF76DFC4048C3
:1019F0003E494FF416560160C0E901650C24C560EC
:101A0000C0E904548561C561FFF724FB00B1FEE71E
:101A10003748384940300160C0E90165C560C0E918
:101A200004548561C561FFF715FB00B1FEE730483E
:101A30003C38FFF7D1F80A262F4C64272E490A2399
:101A40000122091D2A48FFF783FB207964281BD156
:101A500029490A230122491C2548FFF779FB0A235B
:101A6000012225492248FFF773FB23490A2301225B
:101A7000891C1F48FFF76CFB1F490A230122C91C60
:101A80001B48FFF765FB2571E078A17800EB01208A
:101A900080B2A0816178B1FBF6F230326271B1FBA5
:101AA000F6F206FB12113031A1712178B1FBF6F28A
:101AB0003032E271B1FBF6F206FB121130312172C5
:101AC000B0FBF7F130316172B0FBF6F1B1FBF6F229
:101AD00006FB12113031A172B0FBF6F106FB1100CA
:101AE0003030E072AAE70000303802400044004085
:101AF0005C000020001401400000002000000000F5
:101B000000000000010203040607080900000000AD
:101B100001020304341B0008000000202000000024
:101B20008E190008541B000820000020C00400008B
:101B30009E190008000000000000000000000000E6
:101B40000000000001000000100000000000000084
:041B50000024F40079
:040000050800019955
:00000001FF
